{
  "contractName": "Auth",
  "abi": [
    {
      "inputs": [],
      "stateMutability": "nonpayable",
      "type": "constructor"
    },
    {
      "inputs": [
        {
          "internalType": "address",
          "name": "_address",
          "type": "address"
        },
        {
          "internalType": "string",
          "name": "_username",
          "type": "string"
        },
        {
          "internalType": "string",
          "name": "_password",
          "type": "string"
        },
        {
          "internalType": "string",
          "name": "_image",
          "type": "string"
        }
      ],
      "name": "addUser",
      "outputs": [],
      "stateMutability": "nonpayable",
      "type": "function"
    },
    {
      "inputs": [
        {
          "internalType": "address",
          "name": "_userAddress",
          "type": "address"
        }
      ],
      "name": "getUserData",
      "outputs": [
        {
          "internalType": "address",
          "name": "",
          "type": "address"
        },
        {
          "internalType": "string",
          "name": "",
          "type": "string"
        },
        {
          "internalType": "string",
          "name": "",
          "type": "string"
        },
        {
          "internalType": "uint256",
          "name": "",
          "type": "uint256"
        },
        {
          "internalType": "int256",
          "name": "",
          "type": "int256"
        },
        {
          "internalType": "string",
          "name": "",
          "type": "string"
        }
      ],
      "stateMutability": "view",
      "type": "function",
      "constant": true
    },
    {
      "inputs": [
        {
          "internalType": "address",
          "name": "_userAddress",
          "type": "address"
        }
      ],
      "name": "deleteUser",
      "outputs": [],
      "stateMutability": "nonpayable",
      "type": "function"
    }
  ],
  "bytecode": "0x60806040523480156200001157600080fd5b5060003390506040518060c001604052808273ffffffffffffffffffffffffffffffffffffffff1681526020016040518060400160405280600581526020017f41646d696e0000000000000000000000000000000000000000000000000000008152508152602001604051806080016040528060428152602001620017e0604291398152602001428152602001600081526020016040518060a00160405280606381526020016200177d606391398152506000808373ffffffffffffffffffffffffffffffffffffffff1673ffffffffffffffffffffffffffffffffffffffff16815260200190815260200160002060008201518160000160006101000a81548173ffffffffffffffffffffffffffffffffffffffff021916908373ffffffffffffffffffffffffffffffffffffffff16021790555060208201518160010190816200015e91906200042d565b5060408201518160020190816200017691906200042d565b50606082015181600301556080820151816004015560a0820151816005019081620001a291906200042d565b509050505062000514565b600081519050919050565b7f4e487b7100000000000000000000000000000000000000000000000000000000600052604160045260246000fd5b7f4e487b7100000000000000000000000000000000000000000000000000000000600052602260045260246000fd5b600060028204905060018216806200022f57607f821691505b602082108103620002455762000244620001e7565b5b50919050565b60008190508160005260206000209050919050565b60006020601f8301049050919050565b60008160020a8302905092915050565b600060088302620002b27fffffffffffffffffffffffffffffffffffffffffffffffffffffffffffffffff8262000270565b620002be868362000270565b95508019841693508086168417925050509392505050565b6000819050919050565b6000819050919050565b60006200030b62000305620002ff84620002d6565b620002e0565b620002d6565b9050919050565b6000819050919050565b6200032783620002ea565b6200033f620003368262000312565b84845462000280565b825550505050565b600090565b6200035662000347565b620003638184846200031c565b505050565b5b818110156200038b576200037f6000826200034c565b60018101905062000369565b5050565b601f821115620003da57620003a4816200024b565b620003af8462000260565b81016020851015620003bf578190505b620003d7620003ce8562000260565b83018262000368565b50505b505050565b60008160020a8304905092915050565b60006200040260001984600802620003df565b1980831691505092915050565b60006200041d8383620003ef565b9150826002028217905092915050565b6200043882620001ad565b67ffffffffffffffff811115620004545762000453620001b8565b5b62000460825462000216565b6200046d8282856200038f565b600060209050601f831160018114620004a5576000841562000490578287015190505b6200049c85826200040f565b8655506200050c565b601f198416620004b5866200024b565b60005b82811015620004df57848901518255600182019150602085019450602081019050620004b8565b86831015620004ff5784890151620004fb601f891682620003ef565b8355505b6001600288020188555050505b505050505050565b61125980620005246000396000f3fe608060405234801561001057600080fd5b506004361061005e576000357c0100000000000000000000000000000000000000000000000000000000900480635c60f22614610063578063c6361c221461007f578063ffc9896b1461009b575b600080fd5b61007d60048036038101906100789190610a2b565b6100d0565b005b61009960048036038101906100949190610b9e565b610430565b005b6100b560048036038101906100b09190610a2b565b61066a565b6040516100c796959493929190610d19565b60405180910390f35b60008060008373ffffffffffffffffffffffffffffffffffffffff1673ffffffffffffffffffffffffffffffffffffffff1681526020019081526020016000206040518060c00160405290816000820160009054906101000a900473ffffffffffffffffffffffffffffffffffffffff1673ffffffffffffffffffffffffffffffffffffffff1673ffffffffffffffffffffffffffffffffffffffff16815260200160018201805461018190610dbe565b80601f01602080910402602001604051908101604052809291908181526020018280546101ad90610dbe565b80156101fa5780601f106101cf576101008083540402835291602001916101fa565b820191906000526020600020905b8154815290600101906020018083116101dd57829003601f168201915b5050505050815260200160028201805461021390610dbe565b80601f016020809104026020016040519081016040528092919081815260200182805461023f90610dbe565b801561028c5780601f106102615761010080835404028352916020019161028c565b820191906000526020600020905b81548152906001019060200180831161026f57829003601f168201915b5050505050815260200160038201548152602001600482015481526020016005820180546102b990610dbe565b80601f01602080910402602001604051908101604052809291908181526020018280546102e590610dbe565b80156103325780601f1061030757610100808354040283529160200191610332565b820191906000526020600020905b81548152906001019060200180831161031557829003601f168201915b50505050508152505090506000816060015111610384576040517f08c379a000000000000000000000000000000000000000000000000000000000815260040161037b90610e3b565b60405180910390fd5b6000808373ffffffffffffffffffffffffffffffffffffffff1673ffffffffffffffffffffffffffffffffffffffff168152602001908152602001600020600080820160006101000a81549073ffffffffffffffffffffffffffffffffffffffff02191690556001820160006103fa919061095c565b60028201600061040a919061095c565b6003820160009055600482016000905560058201600061042a919061095c565b50505050565b6000835111610474576040517f08c379a000000000000000000000000000000000000000000000000000000000815260040161046b90610ea7565b60405180910390fd5b60008251116104b8576040517f08c379a00000000000000000000000000000000000000000000000000000000081526004016104af90610f13565b60405180910390fd5b60008060008673ffffffffffffffffffffffffffffffffffffffff1673ffffffffffffffffffffffffffffffffffffffff168152602001908152602001600020600301541461053c576040517f08c379a000000000000000000000000000000000000000000000000000000000815260040161053390610f7f565b60405180910390fd5b60006040518060c001604052808673ffffffffffffffffffffffffffffffffffffffff16815260200185815260200184815260200142815260200160018152602001838152509050806000808773ffffffffffffffffffffffffffffffffffffffff1673ffffffffffffffffffffffffffffffffffffffff16815260200190815260200160002060008201518160000160006101000a81548173ffffffffffffffffffffffffffffffffffffffff021916908373ffffffffffffffffffffffffffffffffffffffff160217905550602082015181600101908161061f9190611151565b5060408201518160020190816106359190611151565b50606082015181600301556080820151816004015560a082015181600501908161065f9190611151565b509050505050505050565b6000606080600080606060008060008973ffffffffffffffffffffffffffffffffffffffff1673ffffffffffffffffffffffffffffffffffffffff1681526020019081526020016000206040518060c00160405290816000820160009054906101000a900473ffffffffffffffffffffffffffffffffffffffff1673ffffffffffffffffffffffffffffffffffffffff1673ffffffffffffffffffffffffffffffffffffffff16815260200160018201805461072590610dbe565b80601f016020809104026020016040519081016040528092919081815260200182805461075190610dbe565b801561079e5780601f106107735761010080835404028352916020019161079e565b820191906000526020600020905b81548152906001019060200180831161078157829003601f168201915b505050505081526020016002820180546107b790610dbe565b80601f01602080910402602001604051908101604052809291908181526020018280546107e390610dbe565b80156108305780601f1061080557610100808354040283529160200191610830565b820191906000526020600020905b81548152906001019060200180831161081357829003601f168201915b50505050508152602001600382015481526020016004820154815260200160058201805461085d90610dbe565b80601f016020809104026020016040519081016040528092919081815260200182805461088990610dbe565b80156108d65780601f106108ab576101008083540402835291602001916108d6565b820191906000526020600020905b8154815290600101906020018083116108b957829003601f168201915b50505050508152505090506000816060015111610928576040517f08c379a000000000000000000000000000000000000000000000000000000000815260040161091f90610e3b565b60405180910390fd5b806000015181602001518260400151836060015184608001518560a001519650965096509650965096505091939550919395565b50805461096890610dbe565b6000825580601f1061097a5750610999565b601f016020900490600052602060002090810190610998919061099c565b5b50565b5b808211156109b557600081600090555060010161099d565b5090565b6000604051905090565b600080fd5b600080fd5b600073ffffffffffffffffffffffffffffffffffffffff82169050919050565b60006109f8826109cd565b9050919050565b610a08816109ed565b8114610a1357600080fd5b50565b600081359050610a25816109ff565b92915050565b600060208284031215610a4157610a406109c3565b5b6000610a4f84828501610a16565b91505092915050565b600080fd5b600080fd5b6000601f19601f8301169050919050565b7f4e487b7100000000000000000000000000000000000000000000000000000000600052604160045260246000fd5b610aab82610a62565b810181811067ffffffffffffffff82111715610aca57610ac9610a73565b5b80604052505050565b6000610add6109b9565b9050610ae98282610aa2565b919050565b600067ffffffffffffffff821115610b0957610b08610a73565b5b610b1282610a62565b9050602081019050919050565b82818337600083830152505050565b6000610b41610b3c84610aee565b610ad3565b905082815260208101848484011115610b5d57610b5c610a5d565b5b610b68848285610b1f565b509392505050565b600082601f830112610b8557610b84610a58565b5b8135610b95848260208601610b2e565b91505092915050565b60008060008060808587031215610bb857610bb76109c3565b5b6000610bc687828801610a16565b945050602085013567ffffffffffffffff811115610be757610be66109c8565b5b610bf387828801610b70565b935050604085013567ffffffffffffffff811115610c1457610c136109c8565b5b610c2087828801610b70565b925050606085013567ffffffffffffffff811115610c4157610c406109c8565b5b610c4d87828801610b70565b91505092959194509250565b610c62816109ed565b82525050565b600081519050919050565b600082825260208201905092915050565b60005b83811015610ca2578082015181840152602081019050610c87565b60008484015250505050565b6000610cb982610c68565b610cc38185610c73565b9350610cd3818560208601610c84565b610cdc81610a62565b840191505092915050565b6000819050919050565b610cfa81610ce7565b82525050565b6000819050919050565b610d1381610d00565b82525050565b600060c082019050610d2e6000830189610c59565b8181036020830152610d408188610cae565b90508181036040830152610d548187610cae565b9050610d636060830186610cf1565b610d706080830185610d0a565b81810360a0830152610d828184610cae565b9050979650505050505050565b7f4e487b7100000000000000000000000000000000000000000000000000000000600052602260045260246000fd5b60006002820490506001821680610dd657607f821691505b602082108103610de957610de8610d8f565b5b50919050565b7f5573657220646f6573206e6f7420657869737400000000000000000000000000600082015250565b6000610e25601383610c73565b9150610e3082610def565b602082019050919050565b60006020820190508181036000830152610e5481610e18565b9050919050565b7f557365726e616d652063616e6e6f7420626520656d7074790000000000000000600082015250565b6000610e91601883610c73565b9150610e9c82610e5b565b602082019050919050565b60006020820190508181036000830152610ec081610e84565b9050919050565b7f50617373776f72642063616e6e6f7420626520656d7074790000000000000000600082015250565b6000610efd601883610c73565b9150610f0882610ec7565b602082019050919050565b60006020820190508181036000830152610f2c81610ef0565b9050919050565b7f5573657220616c72656164792065786973747300000000000000000000000000600082015250565b6000610f69601383610c73565b9150610f7482610f33565b602082019050919050565b60006020820190508181036000830152610f9881610f5c565b9050919050565b60008190508160005260206000209050919050565b60006020601f8301049050919050565b60008160020a8302905092915050565b6000600883026110047fffffffffffffffffffffffffffffffffffffffffffffffffffffffffffffffff82610fc4565b61100e8683610fc4565b95508019841693508086168417925050509392505050565b6000819050919050565b600061104b61104661104184610ce7565b611026565b610ce7565b9050919050565b6000819050919050565b61106583611030565b61107961107182611052565b848454610fd4565b825550505050565b600090565b61108e611081565b61109981848461105c565b505050565b5b818110156110bd576110b2600082611086565b60018101905061109f565b5050565b601f821115611102576110d381610f9f565b6110dc84610fb4565b810160208510156110eb578190505b6110ff6110f785610fb4565b83018261109e565b50505b505050565b60008160020a8304905092915050565b600061112860001984600802611107565b1980831691505092915050565b60006111418383611117565b9150826002028217905092915050565b61115a82610c68565b67ffffffffffffffff81111561117357611172610a73565b5b61117d8254610dbe565b6111888282856110c1565b600060209050601f8311600181146111bb57600084156111a9578287015190505b6111b38582611135565b86555061121b565b601f1984166111c986610f9f565b60005b828110156111f1578489015182556001820191506020850194506020810190506111cc565b8683101561120e578489015161120a601f891682611117565b8355505b6001600288020188555050505b50505050505056fea26469706673582212209b40b91d833e1f00812fb45accf89a5627ea8b21d10be9beccc8ec93390b03f064736f6c6343000815003368747470733a2f2f706e672e706e67747265652e636f6d2f706e672d766563746f722f32303139313133302f6f75726d69642f706e67747265652d646f63746f722d69636f6e2d636972636c652d706e672d696d6167655f323035353235372e6a7067307866323365633062623432313065646435636261383561666430353132376566636432666336613738316266656434393138386461313038313637306232326438",
  "immutableReferences": {},
  "source": "// SPDX-License-Identifier: MIT\r\npragma solidity ^0.8.0;\r\n\r\ncontract Auth {\r\n    struct UserData {\r\n        address userAddress;\r\n        string username;\r\n        string password;\r\n        uint256 createdAt;\r\n        int role;\r\n        string image;  // New field for image URL\r\n    }\r\n\r\n    mapping(address => UserData) private users;\r\n\r\n    constructor() {\r\n        // Add initial admin user\r\n        address adminAddress = msg.sender;\r\n        users[adminAddress] = UserData({\r\n            userAddress: adminAddress,\r\n            username: \"Admin\",\r\n            password: \"0xf23ec0bb4210edd5cba85afd05127efcd2fc6a781bfed49188da1081670b22d8\",\r\n            createdAt: block.timestamp,\r\n            role: 0,\r\n            image: \"https://png.pngtree.com/png-vector/20191130/ourmid/pngtree-doctor-icon-circle-png-image_2055257.jpg\"  // Default empty image for admin\r\n        });\r\n    }\r\n\r\n    function addUser(\r\n        address _address,\r\n        string memory _username,\r\n        string memory _password,\r\n        string memory _image  // New parameter for image\r\n    ) public {\r\n        require(bytes(_username).length > 0, \"Username cannot be empty\");\r\n        require(bytes(_password).length > 0, \"Password cannot be empty\");\r\n        require(users[_address].createdAt == 0, \"User already exists\");\r\n\r\n        UserData memory newUser = UserData({\r\n            userAddress: _address,\r\n            username: _username,\r\n            password: _password,\r\n            createdAt: block.timestamp,\r\n            role: 1,\r\n            image: _image \r\n        });\r\n\r\n        users[_address] = newUser;\r\n    }\r\n\r\n    function getUserData(address _userAddress)\r\n        public\r\n        view\r\n        returns (\r\n            address,\r\n            string memory,\r\n            string memory,\r\n            uint256,\r\n            int,\r\n            string memory  // Return image URL\r\n        )\r\n    {\r\n        UserData memory userData = users[_userAddress];\r\n        require(userData.createdAt > 0, \"User does not exist\");\r\n\r\n        return (\r\n            userData.userAddress,\r\n            userData.username,\r\n            userData.password,\r\n            userData.createdAt,\r\n            userData.role,\r\n            userData.image  // Return the image URL\r\n        );\r\n    }\r\n\r\n    function deleteUser(address _userAddress) public {\r\n        UserData memory userData = users[_userAddress];\r\n        require(userData.createdAt > 0, \"User does not exist\");\r\n\r\n        delete users[_userAddress];\r\n    }\r\n}\r\n",
  "sourcePath": "C:\\Users\\MSI\\projects\\blockchain-pfe\\contracts\\Auth.sol",
  "compiler": {
    "name": "solc",
    "version": "0.8.21+commit.d9974bed.Emscripten.clang"
  },
  "schemaVersion": "3.4.16",
  "updatedAt": "2024-05-25T11:24:06.606Z",
  "networkType": "ethereum",
  "devdoc": {
    "kind": "dev",
    "methods": {},
    "version": 1
  },
  "userdoc": {
    "kind": "user",
    "methods": {},
    "version": 1
  }
}