{
  "contractName": "Storage",
  "abi": [
    {
      "inputs": [],
      "stateMutability": "nonpayable",
      "type": "constructor"
    },
    {
      "anonymous": false,
      "inputs": [
        {
          "indexed": true,
          "internalType": "address",
          "name": "userAddress",
          "type": "address"
        },
        {
          "indexed": false,
          "internalType": "uint256",
          "name": "appointmentId",
          "type": "uint256"
        },
        {
          "indexed": false,
          "internalType": "string",
          "name": "date",
          "type": "string"
        },
        {
          "indexed": false,
          "internalType": "string",
          "name": "username",
          "type": "string"
        },
        {
          "indexed": false,
          "internalType": "string",
          "name": "medicalRecord",
          "type": "string"
        },
        {
          "indexed": false,
          "internalType": "string",
          "name": "description",
          "type": "string"
        }
      ],
      "name": "AppointmentAdded",
      "type": "event"
    },
    {
      "anonymous": false,
      "inputs": [
        {
          "indexed": true,
          "internalType": "address",
          "name": "userAddress",
          "type": "address"
        },
        {
          "indexed": false,
          "internalType": "uint256",
          "name": "appointmentId",
          "type": "uint256"
        }
      ],
      "name": "AppointmentDeleted",
      "type": "event"
    },
    {
      "anonymous": false,
      "inputs": [
        {
          "indexed": true,
          "internalType": "address",
          "name": "userAddress",
          "type": "address"
        },
        {
          "indexed": false,
          "internalType": "uint256",
          "name": "appointmentId",
          "type": "uint256"
        },
        {
          "indexed": false,
          "internalType": "string",
          "name": "date",
          "type": "string"
        },
        {
          "indexed": false,
          "internalType": "string",
          "name": "username",
          "type": "string"
        },
        {
          "indexed": false,
          "internalType": "string",
          "name": "medicalRecord",
          "type": "string"
        },
        {
          "indexed": false,
          "internalType": "string",
          "name": "description",
          "type": "string"
        }
      ],
      "name": "AppointmentUpdated",
      "type": "event"
    },
    {
      "anonymous": false,
      "inputs": [
        {
          "indexed": true,
          "internalType": "address",
          "name": "userAddress",
          "type": "address"
        },
        {
          "indexed": false,
          "internalType": "uint256",
          "name": "appointmentId",
          "type": "uint256"
        },
        {
          "indexed": false,
          "internalType": "string",
          "name": "description",
          "type": "string"
        }
      ],
      "name": "DescriptionAddedToAppointment",
      "type": "event"
    },
    {
      "anonymous": false,
      "inputs": [
        {
          "indexed": true,
          "internalType": "address",
          "name": "userAddress",
          "type": "address"
        },
        {
          "indexed": false,
          "internalType": "uint256",
          "name": "recordId",
          "type": "uint256"
        },
        {
          "indexed": false,
          "internalType": "string",
          "name": "description",
          "type": "string"
        }
      ],
      "name": "MedicalRecordAdded",
      "type": "event"
    },
    {
      "anonymous": false,
      "inputs": [
        {
          "indexed": true,
          "internalType": "address",
          "name": "userAddress",
          "type": "address"
        },
        {
          "indexed": false,
          "internalType": "uint256",
          "name": "appointmentId",
          "type": "uint256"
        },
        {
          "indexed": false,
          "internalType": "uint256",
          "name": "recordId",
          "type": "uint256"
        },
        {
          "indexed": false,
          "internalType": "string",
          "name": "description",
          "type": "string"
        }
      ],
      "name": "MedicalRecordAddedToAppointment",
      "type": "event"
    },
    {
      "anonymous": false,
      "inputs": [
        {
          "indexed": true,
          "internalType": "address",
          "name": "userAddress",
          "type": "address"
        },
        {
          "indexed": false,
          "internalType": "uint256",
          "name": "recordId",
          "type": "uint256"
        }
      ],
      "name": "MedicalRecordDeleted",
      "type": "event"
    },
    {
      "anonymous": false,
      "inputs": [
        {
          "indexed": true,
          "internalType": "address",
          "name": "userAddress",
          "type": "address"
        },
        {
          "indexed": false,
          "internalType": "uint256",
          "name": "recordId",
          "type": "uint256"
        },
        {
          "indexed": false,
          "internalType": "string",
          "name": "description",
          "type": "string"
        }
      ],
      "name": "MedicalRecordUpdated",
      "type": "event"
    },
    {
      "anonymous": false,
      "inputs": [
        {
          "indexed": true,
          "internalType": "address",
          "name": "userAddress",
          "type": "address"
        },
        {
          "indexed": false,
          "internalType": "string",
          "name": "name",
          "type": "string"
        }
      ],
      "name": "UserAdded",
      "type": "event"
    },
    {
      "anonymous": false,
      "inputs": [
        {
          "indexed": true,
          "internalType": "address",
          "name": "userAddress",
          "type": "address"
        }
      ],
      "name": "UserDeleted",
      "type": "event"
    },
    {
      "inputs": [
        {
          "internalType": "address",
          "name": "",
          "type": "address"
        }
      ],
      "name": "appointmentCount",
      "outputs": [
        {
          "internalType": "uint256",
          "name": "",
          "type": "uint256"
        }
      ],
      "stateMutability": "view",
      "type": "function",
      "constant": true
    },
    {
      "inputs": [],
      "name": "deployer",
      "outputs": [
        {
          "internalType": "address",
          "name": "",
          "type": "address"
        }
      ],
      "stateMutability": "view",
      "type": "function",
      "constant": true
    },
    {
      "inputs": [
        {
          "internalType": "address",
          "name": "",
          "type": "address"
        }
      ],
      "name": "medicalRecordCount",
      "outputs": [
        {
          "internalType": "uint256",
          "name": "",
          "type": "uint256"
        }
      ],
      "stateMutability": "view",
      "type": "function",
      "constant": true
    },
    {
      "inputs": [
        {
          "internalType": "uint256",
          "name": "",
          "type": "uint256"
        }
      ],
      "name": "userAddresses",
      "outputs": [
        {
          "internalType": "address",
          "name": "",
          "type": "address"
        }
      ],
      "stateMutability": "view",
      "type": "function",
      "constant": true
    },
    {
      "inputs": [
        {
          "internalType": "address",
          "name": "",
          "type": "address"
        }
      ],
      "name": "users",
      "outputs": [
        {
          "internalType": "address",
          "name": "userAddress",
          "type": "address"
        },
        {
          "internalType": "string",
          "name": "name",
          "type": "string"
        },
        {
          "internalType": "string",
          "name": "birthday",
          "type": "string"
        },
        {
          "internalType": "string",
          "name": "illness",
          "type": "string"
        },
        {
          "internalType": "string",
          "name": "image",
          "type": "string"
        }
      ],
      "stateMutability": "view",
      "type": "function",
      "constant": true
    },
    {
      "inputs": [
        {
          "internalType": "address",
          "name": "_userAddress",
          "type": "address"
        },
        {
          "internalType": "string",
          "name": "_name",
          "type": "string"
        },
        {
          "internalType": "string",
          "name": "_birthday",
          "type": "string"
        },
        {
          "internalType": "string",
          "name": "_illness",
          "type": "string"
        },
        {
          "internalType": "string",
          "name": "_image",
          "type": "string"
        }
      ],
      "name": "addUser",
      "outputs": [],
      "stateMutability": "nonpayable",
      "type": "function"
    },
    {
      "inputs": [
        {
          "internalType": "address",
          "name": "_userAddress",
          "type": "address"
        }
      ],
      "name": "deleteUser",
      "outputs": [],
      "stateMutability": "nonpayable",
      "type": "function"
    },
    {
      "inputs": [
        {
          "internalType": "address",
          "name": "_userAddress",
          "type": "address"
        }
      ],
      "name": "getUser",
      "outputs": [
        {
          "internalType": "string",
          "name": "",
          "type": "string"
        },
        {
          "internalType": "string",
          "name": "",
          "type": "string"
        },
        {
          "internalType": "string",
          "name": "",
          "type": "string"
        },
        {
          "internalType": "string",
          "name": "",
          "type": "string"
        },
        {
          "components": [
            {
              "internalType": "uint256",
              "name": "id",
              "type": "uint256"
            },
            {
              "internalType": "string",
              "name": "date",
              "type": "string"
            },
            {
              "internalType": "string",
              "name": "username",
              "type": "string"
            },
            {
              "internalType": "string",
              "name": "medicalRecord",
              "type": "string"
            },
            {
              "internalType": "string",
              "name": "description",
              "type": "string"
            }
          ],
          "internalType": "struct Storage.Appointment[]",
          "name": "",
          "type": "tuple[]"
        }
      ],
      "stateMutability": "view",
      "type": "function",
      "constant": true
    },
    {
      "inputs": [],
      "name": "getAllUserAddresses",
      "outputs": [
        {
          "internalType": "address[]",
          "name": "",
          "type": "address[]"
        }
      ],
      "stateMutability": "view",
      "type": "function",
      "constant": true
    },
    {
      "inputs": [
        {
          "internalType": "address",
          "name": "_userAddress",
          "type": "address"
        },
        {
          "internalType": "string",
          "name": "_date",
          "type": "string"
        },
        {
          "internalType": "string",
          "name": "_username",
          "type": "string"
        }
      ],
      "name": "addAppointment",
      "outputs": [],
      "stateMutability": "payable",
      "type": "function",
      "payable": true
    },
    {
      "inputs": [
        {
          "internalType": "address",
          "name": "_userAddress",
          "type": "address"
        },
        {
          "internalType": "uint256",
          "name": "_appointmentId",
          "type": "uint256"
        },
        {
          "internalType": "string",
          "name": "_newDate",
          "type": "string"
        },
        {
          "internalType": "string",
          "name": "_username",
          "type": "string"
        },
        {
          "internalType": "string",
          "name": "_medicalRecord",
          "type": "string"
        },
        {
          "internalType": "string",
          "name": "_description",
          "type": "string"
        }
      ],
      "name": "updateAppointment",
      "outputs": [],
      "stateMutability": "nonpayable",
      "type": "function"
    },
    {
      "inputs": [
        {
          "internalType": "address",
          "name": "_userAddress",
          "type": "address"
        }
      ],
      "name": "getUserAppointments",
      "outputs": [
        {
          "components": [
            {
              "internalType": "uint256",
              "name": "id",
              "type": "uint256"
            },
            {
              "internalType": "string",
              "name": "date",
              "type": "string"
            },
            {
              "internalType": "string",
              "name": "username",
              "type": "string"
            },
            {
              "internalType": "string",
              "name": "medicalRecord",
              "type": "string"
            },
            {
              "internalType": "string",
              "name": "description",
              "type": "string"
            }
          ],
          "internalType": "struct Storage.Appointment[]",
          "name": "",
          "type": "tuple[]"
        }
      ],
      "stateMutability": "view",
      "type": "function",
      "constant": true
    },
    {
      "inputs": [],
      "name": "getAllAppointments",
      "outputs": [
        {
          "components": [
            {
              "internalType": "uint256",
              "name": "id",
              "type": "uint256"
            },
            {
              "internalType": "string",
              "name": "date",
              "type": "string"
            },
            {
              "internalType": "string",
              "name": "username",
              "type": "string"
            },
            {
              "internalType": "string",
              "name": "medicalRecord",
              "type": "string"
            },
            {
              "internalType": "string",
              "name": "description",
              "type": "string"
            }
          ],
          "internalType": "struct Storage.Appointment[]",
          "name": "",
          "type": "tuple[]"
        }
      ],
      "stateMutability": "view",
      "type": "function",
      "constant": true
    },
    {
      "inputs": [],
      "name": "fetchAllUsers",
      "outputs": [
        {
          "components": [
            {
              "internalType": "address",
              "name": "userAddress",
              "type": "address"
            },
            {
              "internalType": "string",
              "name": "name",
              "type": "string"
            },
            {
              "internalType": "string",
              "name": "birthday",
              "type": "string"
            },
            {
              "internalType": "string",
              "name": "illness",
              "type": "string"
            },
            {
              "internalType": "string",
              "name": "image",
              "type": "string"
            },
            {
              "components": [
                {
                  "internalType": "uint256",
                  "name": "id",
                  "type": "uint256"
                },
                {
                  "internalType": "string",
                  "name": "date",
                  "type": "string"
                },
                {
                  "internalType": "string",
                  "name": "username",
                  "type": "string"
                },
                {
                  "internalType": "string",
                  "name": "medicalRecord",
                  "type": "string"
                },
                {
                  "internalType": "string",
                  "name": "description",
                  "type": "string"
                }
              ],
              "internalType": "struct Storage.Appointment[]",
              "name": "appointments",
              "type": "tuple[]"
            }
          ],
          "internalType": "struct Storage.User[]",
          "name": "",
          "type": "tuple[]"
        }
      ],
      "stateMutability": "view",
      "type": "function",
      "constant": true
    }
  ],
  "bytecode": "0x608060405234801561001057600080fd5b50336000806101000a81548173ffffffffffffffffffffffffffffffffffffffff021916908373ffffffffffffffffffffffffffffffffffffffff160217905550613d52806100606000396000f3fe6080604052600436106100fa576000357c0100000000000000000000000000000000000000000000000000000000900480639a293ceb1161009c578063c337431511610076578063c3374315146102fc578063cd274a4014610327578063d4ca61bd14610350578063d5f394881461038d576100fa565b80639a293ceb14610276578063a87430ba14610292578063b369a873146102d3576100fa565b806352678d6c116100d857806352678d6c146101a45780635c60f226146101e15780636f77926b1461020a5780637933570c1461024b576100fa565b80630d53eb56146100ff5780632f3300231461013c578063502c9bd514610167575b600080fd5b34801561010b57600080fd5b5061012660048036038101906101219190612a30565b6103b8565b6040516101339190612a76565b60405180910390f35b34801561014857600080fd5b506101516103d0565b60405161015e9190612b4f565b60405180910390f35b34801561017357600080fd5b5061018e60048036038101906101899190612b9d565b61045e565b60405161019b9190612bd9565b60405180910390f35b3480156101b057600080fd5b506101cb60048036038101906101c69190612a30565b61049d565b6040516101d89190612de0565b60405180910390f35b3480156101ed57600080fd5b5061020860048036038101906102039190612a30565b610869565b005b34801561021657600080fd5b50610231600480360381019061022c9190612a30565b610c54565b604051610242959493929190612e4c565b60405180910390f35b34801561025757600080fd5b50610260611275565b60405161026d9190612de0565b60405180910390f35b610290600480360381019061028b9190612ff7565b611710565b005b34801561029e57600080fd5b506102b960048036038101906102b49190612a30565b611ac5565b6040516102ca959493929190613082565b60405180910390f35b3480156102df57600080fd5b506102fa60048036038101906102f591906130f1565b611d3b565b005b34801561030857600080fd5b50610311611f50565b60405161031e91906133db565b60405180910390f35b34801561033357600080fd5b5061034e600480360381019061034991906133fd565b6125cf565b005b34801561035c57600080fd5b5061037760048036038101906103729190612a30565b612827565b6040516103849190612a76565b60405180910390f35b34801561039957600080fd5b506103a261283f565b6040516103af9190612bd9565b60405180910390f35b60026020528060005260406000206000915090505481565b6060600480548060200260200160405190810160405280929190818152602001828054801561045457602002820191906000526020600020905b8160009054906101000a900473ffffffffffffffffffffffffffffffffffffffff1673ffffffffffffffffffffffffffffffffffffffff168152602001906001019080831161040a575b5050505050905090565b6004818154811061046e57600080fd5b906000526020600020016000915054906101000a900473ffffffffffffffffffffffffffffffffffffffff1681565b606081600073ffffffffffffffffffffffffffffffffffffffff16600160008373ffffffffffffffffffffffffffffffffffffffff1673ffffffffffffffffffffffffffffffffffffffff16815260200190815260200160002060000160009054906101000a900473ffffffffffffffffffffffffffffffffffffffff1673ffffffffffffffffffffffffffffffffffffffff1603610571576040517f08c379a000000000000000000000000000000000000000000000000000000000815260040161056890613534565b60405180910390fd5b6000600160008573ffffffffffffffffffffffffffffffffffffffff1673ffffffffffffffffffffffffffffffffffffffff168152602001908152602001600020905080600501805480602002602001604051908101604052809291908181526020016000905b8282101561085c57838290600052602060002090600502016040518060a00160405290816000820154815260200160018201805461061590613583565b80601f016020809104026020016040519081016040528092919081815260200182805461064190613583565b801561068e5780601f106106635761010080835404028352916020019161068e565b820191906000526020600020905b81548152906001019060200180831161067157829003601f168201915b505050505081526020016002820180546106a790613583565b80601f01602080910402602001604051908101604052809291908181526020018280546106d390613583565b80156107205780601f106106f557610100808354040283529160200191610720565b820191906000526020600020905b81548152906001019060200180831161070357829003601f168201915b5050505050815260200160038201805461073990613583565b80601f016020809104026020016040519081016040528092919081815260200182805461076590613583565b80156107b25780601f10610787576101008083540402835291602001916107b2565b820191906000526020600020905b81548152906001019060200180831161079557829003601f168201915b505050505081526020016004820180546107cb90613583565b80601f01602080910402602001604051908101604052809291908181526020018280546107f790613583565b80156108445780601f1061081957610100808354040283529160200191610844565b820191906000526020600020905b81548152906001019060200180831161082757829003601f168201915b505050505081525050815260200190600101906105d8565b5050505092505050919050565b60008054906101000a900473ffffffffffffffffffffffffffffffffffffffff1673ffffffffffffffffffffffffffffffffffffffff163373ffffffffffffffffffffffffffffffffffffffff16146108f7576040517f08c379a00000000000000000000000000000000000000000000000000000000081526004016108ee90613626565b60405180910390fd5b600073ffffffffffffffffffffffffffffffffffffffff16600160008373ffffffffffffffffffffffffffffffffffffffff1673ffffffffffffffffffffffffffffffffffffffff16815260200190815260200160002060000160009054906101000a900473ffffffffffffffffffffffffffffffffffffffff1673ffffffffffffffffffffffffffffffffffffffff16036109c8576040517f08c379a00000000000000000000000000000000000000000000000000000000081526004016109bf90613534565b60405180910390fd5b600160008273ffffffffffffffffffffffffffffffffffffffff1673ffffffffffffffffffffffffffffffffffffffff168152602001908152602001600020600080820160006101000a81549073ffffffffffffffffffffffffffffffffffffffff0219169055600182016000610a3f9190612863565b600282016000610a4f9190612863565b600382016000610a5f9190612863565b600482016000610a6f9190612863565b600582016000610a7f91906128a3565b505060005b600480549050811015610c0d578173ffffffffffffffffffffffffffffffffffffffff1660048281548110610abc57610abb613646565b5b9060005260206000200160009054906101000a900473ffffffffffffffffffffffffffffffffffffffff1673ffffffffffffffffffffffffffffffffffffffff1603610bfa5760046001600480549050610b1691906136a4565b81548110610b2757610b26613646565b5b9060005260206000200160009054906101000a900473ffffffffffffffffffffffffffffffffffffffff1660048281548110610b6657610b65613646565b5b9060005260206000200160006101000a81548173ffffffffffffffffffffffffffffffffffffffff021916908373ffffffffffffffffffffffffffffffffffffffff1602179055506004805480610bc057610bbf6136d8565b5b6001900381819060005260206000200160006101000a81549073ffffffffffffffffffffffffffffffffffffffff02191690559055610c0d565b8080610c0590613707565b915050610a84565b508073ffffffffffffffffffffffffffffffffffffffff167f4bc56f1321288dfb5b416cb3a7fd188723979f9e866c91d88eccf7fca039d03960405160405180910390a250565b606080606080606085600073ffffffffffffffffffffffffffffffffffffffff16600160008373ffffffffffffffffffffffffffffffffffffffff1673ffffffffffffffffffffffffffffffffffffffff16815260200190815260200160002060000160009054906101000a900473ffffffffffffffffffffffffffffffffffffffff1673ffffffffffffffffffffffffffffffffffffffff1603610d2e576040517f08c379a0000000000000000000000000000000000000000000000000000000008152600401610d2590613534565b60405180910390fd5b6000600160008973ffffffffffffffffffffffffffffffffffffffff1673ffffffffffffffffffffffffffffffffffffffff16815260200190815260200160002090508060010181600201826003018360040184600501848054610d9190613583565b80601f0160208091040260200160405190810160405280929190818152602001828054610dbd90613583565b8015610e0a5780601f10610ddf57610100808354040283529160200191610e0a565b820191906000526020600020905b815481529060010190602001808311610ded57829003601f168201915b50505050509450838054610e1d90613583565b80601f0160208091040260200160405190810160405280929190818152602001828054610e4990613583565b8015610e965780601f10610e6b57610100808354040283529160200191610e96565b820191906000526020600020905b815481529060010190602001808311610e7957829003601f168201915b50505050509350828054610ea990613583565b80601f0160208091040260200160405190810160405280929190818152602001828054610ed590613583565b8015610f225780601f10610ef757610100808354040283529160200191610f22565b820191906000526020600020905b815481529060010190602001808311610f0557829003601f168201915b50505050509250818054610f3590613583565b80601f0160208091040260200160405190810160405280929190818152602001828054610f6190613583565b8015610fae5780601f10610f8357610100808354040283529160200191610fae565b820191906000526020600020905b815481529060010190602001808311610f9157829003601f168201915b5050505050915080805480602002602001604051908101604052809291908181526020016000905b8282101561125a57838290600052602060002090600502016040518060a00160405290816000820154815260200160018201805461101390613583565b80601f016020809104026020016040519081016040528092919081815260200182805461103f90613583565b801561108c5780601f106110615761010080835404028352916020019161108c565b820191906000526020600020905b81548152906001019060200180831161106f57829003601f168201915b505050505081526020016002820180546110a590613583565b80601f01602080910402602001604051908101604052809291908181526020018280546110d190613583565b801561111e5780601f106110f35761010080835404028352916020019161111e565b820191906000526020600020905b81548152906001019060200180831161110157829003601f168201915b5050505050815260200160038201805461113790613583565b80601f016020809104026020016040519081016040528092919081815260200182805461116390613583565b80156111b05780601f10611185576101008083540402835291602001916111b0565b820191906000526020600020905b81548152906001019060200180831161119357829003601f168201915b505050505081526020016004820180546111c990613583565b80601f01602080910402602001604051908101604052809291908181526020018280546111f590613583565b80156112425780601f1061121757610100808354040283529160200191611242565b820191906000526020600020905b81548152906001019060200180831161122557829003601f168201915b50505050508152505081526020019060010190610fd6565b50505050905096509650965096509650505091939590929450565b6060600080600090505b6004805490508110156113305760016000600483815481106112a4576112a3613646565b5b9060005260206000200160009054906101000a900473ffffffffffffffffffffffffffffffffffffffff1673ffffffffffffffffffffffffffffffffffffffff1673ffffffffffffffffffffffffffffffffffffffff168152602001908152602001600020600501805490508261131b919061374f565b9150808061132890613707565b91505061127f565b5060008167ffffffffffffffff81111561134d5761134c612ecc565b5b60405190808252806020026020018201604052801561138657816020015b6113736128c7565b81526020019060019003908161136b5790505b509050600080600090505b60048054905081101561170657600060016000600484815481106113b8576113b7613646565b5b9060005260206000200160009054906101000a900473ffffffffffffffffffffffffffffffffffffffff1673ffffffffffffffffffffffffffffffffffffffff1673ffffffffffffffffffffffffffffffffffffffff168152602001908152602001600020905060005b81600501805490508110156116f15781600501818154811061144757611446613646565b5b90600052602060002090600502016040518060a00160405290816000820154815260200160018201805461147a90613583565b80601f01602080910402602001604051908101604052809291908181526020018280546114a690613583565b80156114f35780601f106114c8576101008083540402835291602001916114f3565b820191906000526020600020905b8154815290600101906020018083116114d657829003601f168201915b5050505050815260200160028201805461150c90613583565b80601f016020809104026020016040519081016040528092919081815260200182805461153890613583565b80156115855780601f1061155a57610100808354040283529160200191611585565b820191906000526020600020905b81548152906001019060200180831161156857829003601f168201915b5050505050815260200160038201805461159e90613583565b80601f01602080910402602001604051908101604052809291908181526020018280546115ca90613583565b80156116175780601f106115ec57610100808354040283529160200191611617565b820191906000526020600020905b8154815290600101906020018083116115fa57829003601f168201915b5050505050815260200160048201805461163090613583565b80601f016020809104026020016040519081016040528092919081815260200182805461165c90613583565b80156116a95780601f1061167e576101008083540402835291602001916116a9565b820191906000526020600020905b81548152906001019060200180831161168c57829003601f168201915b5050505050815250508585815181106116c5576116c4613646565b5b602002602001018190525083806116db90613707565b94505080806116e990613707565b915050611422565b505080806116fe90613707565b915050611391565b5081935050505090565b82600073ffffffffffffffffffffffffffffffffffffffff16600160008373ffffffffffffffffffffffffffffffffffffffff1673ffffffffffffffffffffffffffffffffffffffff16815260200190815260200160002060000160009054906101000a900473ffffffffffffffffffffffffffffffffffffffff1673ffffffffffffffffffffffffffffffffffffffff16036117e2576040517f08c379a00000000000000000000000000000000000000000000000000000000081526004016117d990613534565b60405180910390fd5b67016345785d8a0000341461182c576040517f08c379a0000000000000000000000000000000000000000000000000000000008152600401611823906137cf565b60405180910390fd5b60008060009054906101000a900473ffffffffffffffffffffffffffffffffffffffff1673ffffffffffffffffffffffffffffffffffffffff163460405161187390613820565b60006040518083038185875af1925050503d80600081146118b0576040519150601f19603f3d011682016040523d82523d6000602084013e6118b5565b606091505b50509050806118f9576040517f08c379a00000000000000000000000000000000000000000000000000000000081526004016118f090613881565b60405180910390fd5b6000600160008773ffffffffffffffffffffffffffffffffffffffff1673ffffffffffffffffffffffffffffffffffffffff16815260200190815260200160002090506000600360008873ffffffffffffffffffffffffffffffffffffffff1673ffffffffffffffffffffffffffffffffffffffff168152602001908152602001600020600081548092919061198e90613707565b919050559050816005016040518060a00160405280838152602001888152602001878152602001604051806020016040528060008152508152602001604051806020016040528060008152508152509080600181540180825580915050600190039060005260206000209060050201600090919091909150600082015181600001556020820151816001019081611a259190613a53565b506040820151816002019081611a3b9190613a53565b506060820151816003019081611a519190613a53565b506080820151816004019081611a679190613a53565b5050508673ffffffffffffffffffffffffffffffffffffffff167fb00cd1ecb918d57b7df8f1e910cca0f12941eed6c41929134634d3f2f0737a3e828888604051611ab493929190613b48565b60405180910390a250505050505050565b60016020528060005260406000206000915090508060000160009054906101000a900473ffffffffffffffffffffffffffffffffffffffff1690806001018054611b0e90613583565b80601f0160208091040260200160405190810160405280929190818152602001828054611b3a90613583565b8015611b875780601f10611b5c57610100808354040283529160200191611b87565b820191906000526020600020905b815481529060010190602001808311611b6a57829003601f168201915b505050505090806002018054611b9c90613583565b80601f0160208091040260200160405190810160405280929190818152602001828054611bc890613583565b8015611c155780601f10611bea57610100808354040283529160200191611c15565b820191906000526020600020905b815481529060010190602001808311611bf857829003601f168201915b505050505090806003018054611c2a90613583565b80601f0160208091040260200160405190810160405280929190818152602001828054611c5690613583565b8015611ca35780601f10611c7857610100808354040283529160200191611ca3565b820191906000526020600020905b815481529060010190602001808311611c8657829003601f168201915b505050505090806004018054611cb890613583565b80601f0160208091040260200160405190810160405280929190818152602001828054611ce490613583565b8015611d315780601f10611d0657610100808354040283529160200191611d31565b820191906000526020600020905b815481529060010190602001808311611d1457829003601f168201915b5050505050905085565b6000600160008873ffffffffffffffffffffffffffffffffffffffff1673ffffffffffffffffffffffffffffffffffffffff16815260200190815260200160002090506000805b8260050180549050811015611eaf5787836005018281548110611da857611da7613646565b5b90600052602060002090600502016000015403611e9c5786836005018281548110611dd657611dd5613646565b5b90600052602060002090600502016001019081611df39190613a53565b5085836005018281548110611e0b57611e0a613646565b5b90600052602060002090600502016002019081611e289190613a53565b5084836005018281548110611e4057611e3f613646565b5b90600052602060002090600502016003019081611e5d9190613a53565b5083836005018281548110611e7557611e74613646565b5b90600052602060002090600502016004019081611e929190613a53565b5060019150611eaf565b8080611ea790613707565b915050611d82565b5080611ef0576040517f08c379a0000000000000000000000000000000000000000000000000000000008152600401611ee790613bff565b60405180910390fd5b8773ffffffffffffffffffffffffffffffffffffffff167fe2ff619483bcf23a99cf8c93f4ec58c62cc7ff41c280035878f95c3f9db053c28888888888604051611f3e959493929190613c1f565b60405180910390a25050505050505050565b6060600060048054905067ffffffffffffffff811115611f7357611f72612ecc565b5b604051908082528060200260200182016040528015611fac57816020015b611f996128f6565b815260200190600190039081611f915790505b50905060005b6004805490508110156125c7576001600060048381548110611fd757611fd6613646565b5b9060005260206000200160009054906101000a900473ffffffffffffffffffffffffffffffffffffffff1673ffffffffffffffffffffffffffffffffffffffff1673ffffffffffffffffffffffffffffffffffffffff1681526020019081526020016000206040518060c00160405290816000820160009054906101000a900473ffffffffffffffffffffffffffffffffffffffff1673ffffffffffffffffffffffffffffffffffffffff1673ffffffffffffffffffffffffffffffffffffffff1681526020016001820180546120ad90613583565b80601f01602080910402602001604051908101604052809291908181526020018280546120d990613583565b80156121265780601f106120fb57610100808354040283529160200191612126565b820191906000526020600020905b81548152906001019060200180831161210957829003601f168201915b5050505050815260200160028201805461213f90613583565b80601f016020809104026020016040519081016040528092919081815260200182805461216b90613583565b80156121b85780601f1061218d576101008083540402835291602001916121b8565b820191906000526020600020905b81548152906001019060200180831161219b57829003601f168201915b505050505081526020016003820180546121d190613583565b80601f01602080910402602001604051908101604052809291908181526020018280546121fd90613583565b801561224a5780601f1061221f5761010080835404028352916020019161224a565b820191906000526020600020905b81548152906001019060200180831161222d57829003601f168201915b5050505050815260200160048201805461226390613583565b80601f016020809104026020016040519081016040528092919081815260200182805461228f90613583565b80156122dc5780601f106122b1576101008083540402835291602001916122dc565b820191906000526020600020905b8154815290600101906020018083116122bf57829003601f168201915b5050505050815260200160058201805480602002602001604051908101604052809291908181526020016000905b8282101561258e57838290600052602060002090600502016040518060a00160405290816000820154815260200160018201805461234790613583565b80601f016020809104026020016040519081016040528092919081815260200182805461237390613583565b80156123c05780601f10612395576101008083540402835291602001916123c0565b820191906000526020600020905b8154815290600101906020018083116123a357829003601f168201915b505050505081526020016002820180546123d990613583565b80601f016020809104026020016040519081016040528092919081815260200182805461240590613583565b80156124525780601f1061242757610100808354040283529160200191612452565b820191906000526020600020905b81548152906001019060200180831161243557829003601f168201915b5050505050815260200160038201805461246b90613583565b80601f016020809104026020016040519081016040528092919081815260200182805461249790613583565b80156124e45780601f106124b9576101008083540402835291602001916124e4565b820191906000526020600020905b8154815290600101906020018083116124c757829003601f168201915b505050505081526020016004820180546124fd90613583565b80601f016020809104026020016040519081016040528092919081815260200182805461252990613583565b80156125765780601f1061254b57610100808354040283529160200191612576565b820191906000526020600020905b81548152906001019060200180831161255957829003601f168201915b5050505050815250508152602001906001019061230a565b50505050815250508282815181106125a9576125a8613646565b5b602002602001018190525080806125bf90613707565b915050611fb2565b508091505090565b600073ffffffffffffffffffffffffffffffffffffffff16600160008773ffffffffffffffffffffffffffffffffffffffff1673ffffffffffffffffffffffffffffffffffffffff16815260200190815260200160002060000160009054906101000a900473ffffffffffffffffffffffffffffffffffffffff1673ffffffffffffffffffffffffffffffffffffffff16146126a0576040517f08c379a000000000000000000000000000000000000000000000000000000000815260040161269790613cda565b60405180910390fd5b6000600160008773ffffffffffffffffffffffffffffffffffffffff1673ffffffffffffffffffffffffffffffffffffffff1681526020019081526020016000209050858160000160006101000a81548173ffffffffffffffffffffffffffffffffffffffff021916908373ffffffffffffffffffffffffffffffffffffffff160217905550848160010190816127379190613a53565b50838160020190816127499190613a53565b508281600301908161275b9190613a53565b508181600401908161276d9190613a53565b506004869080600181540180825580915050600190039060005260206000200160009091909190916101000a81548173ffffffffffffffffffffffffffffffffffffffff021916908373ffffffffffffffffffffffffffffffffffffffff1602179055508573ffffffffffffffffffffffffffffffffffffffff167fa56e21173460286ea98fc3defc7671b9b8e2ff0c6acea8d6ed30b343724e23fa866040516128179190613cfa565b60405180910390a2505050505050565b60036020528060005260406000206000915090505481565b60008054906101000a900473ffffffffffffffffffffffffffffffffffffffff1681565b50805461286f90613583565b6000825580601f1061288157506128a0565b601f01602090049060005260206000209081019061289f9190612942565b5b50565b50805460008255600502906000526020600020908101906128c4919061295f565b50565b6040518060a0016040528060008152602001606081526020016060815260200160608152602001606081525090565b6040518060c00160405280600073ffffffffffffffffffffffffffffffffffffffff16815260200160608152602001606081526020016060815260200160608152602001606081525090565b5b8082111561295b576000816000905550600101612943565b5090565b5b808211156129ba576000808201600090556001820160006129819190612863565b6002820160006129919190612863565b6003820160006129a19190612863565b6004820160006129b19190612863565b50600501612960565b5090565b6000604051905090565b600080fd5b600080fd5b600073ffffffffffffffffffffffffffffffffffffffff82169050919050565b60006129fd826129d2565b9050919050565b612a0d816129f2565b8114612a1857600080fd5b50565b600081359050612a2a81612a04565b92915050565b600060208284031215612a4657612a456129c8565b5b6000612a5484828501612a1b565b91505092915050565b6000819050919050565b612a7081612a5d565b82525050565b6000602082019050612a8b6000830184612a67565b92915050565b600081519050919050565b600082825260208201905092915050565b6000819050602082019050919050565b612ac6816129f2565b82525050565b6000612ad88383612abd565b60208301905092915050565b6000602082019050919050565b6000612afc82612a91565b612b068185612a9c565b9350612b1183612aad565b8060005b83811015612b42578151612b298882612acc565b9750612b3483612ae4565b925050600181019050612b15565b5085935050505092915050565b60006020820190508181036000830152612b698184612af1565b905092915050565b612b7a81612a5d565b8114612b8557600080fd5b50565b600081359050612b9781612b71565b92915050565b600060208284031215612bb357612bb26129c8565b5b6000612bc184828501612b88565b91505092915050565b612bd3816129f2565b82525050565b6000602082019050612bee6000830184612bca565b92915050565b600081519050919050565b600082825260208201905092915050565b6000819050602082019050919050565b612c2981612a5d565b82525050565b600081519050919050565b600082825260208201905092915050565b60005b83811015612c69578082015181840152602081019050612c4e565b60008484015250505050565b6000601f19601f8301169050919050565b6000612c9182612c2f565b612c9b8185612c3a565b9350612cab818560208601612c4b565b612cb481612c75565b840191505092915050565b600060a083016000830151612cd76000860182612c20565b5060208301518482036020860152612cef8282612c86565b91505060408301518482036040860152612d098282612c86565b91505060608301518482036060860152612d238282612c86565b91505060808301518482036080860152612d3d8282612c86565b9150508091505092915050565b6000612d568383612cbf565b905092915050565b6000602082019050919050565b6000612d7682612bf4565b612d808185612bff565b935083602082028501612d9285612c10565b8060005b85811015612dce5784840389528151612daf8582612d4a565b9450612dba83612d5e565b925060208a01995050600181019050612d96565b50829750879550505050505092915050565b60006020820190508181036000830152612dfa8184612d6b565b905092915050565b600082825260208201905092915050565b6000612e1e82612c2f565b612e288185612e02565b9350612e38818560208601612c4b565b612e4181612c75565b840191505092915050565b600060a0820190508181036000830152612e668188612e13565b90508181036020830152612e7a8187612e13565b90508181036040830152612e8e8186612e13565b90508181036060830152612ea28185612e13565b90508181036080830152612eb68184612d6b565b90509695505050505050565b600080fd5b600080fd5b7f4e487b7100000000000000000000000000000000000000000000000000000000600052604160045260246000fd5b612f0482612c75565b810181811067ffffffffffffffff82111715612f2357612f22612ecc565b5b80604052505050565b6000612f366129be565b9050612f428282612efb565b919050565b600067ffffffffffffffff821115612f6257612f61612ecc565b5b612f6b82612c75565b9050602081019050919050565b82818337600083830152505050565b6000612f9a612f9584612f47565b612f2c565b905082815260208101848484011115612fb657612fb5612ec7565b5b612fc1848285612f78565b509392505050565b600082601f830112612fde57612fdd612ec2565b5b8135612fee848260208601612f87565b91505092915050565b6000806000606084860312156130105761300f6129c8565b5b600061301e86828701612a1b565b935050602084013567ffffffffffffffff81111561303f5761303e6129cd565b5b61304b86828701612fc9565b925050604084013567ffffffffffffffff81111561306c5761306b6129cd565b5b61307886828701612fc9565b9150509250925092565b600060a0820190506130976000830188612bca565b81810360208301526130a98187612e13565b905081810360408301526130bd8186612e13565b905081810360608301526130d18185612e13565b905081810360808301526130e58184612e13565b90509695505050505050565b60008060008060008060c0878903121561310e5761310d6129c8565b5b600061311c89828a01612a1b565b965050602061312d89828a01612b88565b955050604087013567ffffffffffffffff81111561314e5761314d6129cd565b5b61315a89828a01612fc9565b945050606087013567ffffffffffffffff81111561317b5761317a6129cd565b5b61318789828a01612fc9565b935050608087013567ffffffffffffffff8111156131a8576131a76129cd565b5b6131b489828a01612fc9565b92505060a087013567ffffffffffffffff8111156131d5576131d46129cd565b5b6131e189828a01612fc9565b9150509295509295509295565b600081519050919050565b600082825260208201905092915050565b6000819050602082019050919050565b600082825260208201905092915050565b600061323682612bf4565b613240818561321a565b93508360208202850161325285612c10565b8060005b8581101561328e578484038952815161326f8582612d4a565b945061327a83612d5e565b925060208a01995050600181019050613256565b50829750879550505050505092915050565b600060c0830160008301516132b86000860182612abd565b50602083015184820360208601526132d08282612c86565b915050604083015184820360408601526132ea8282612c86565b915050606083015184820360608601526133048282612c86565b9150506080830151848203608086015261331e8282612c86565b91505060a083015184820360a0860152613338828261322b565b9150508091505092915050565b600061335183836132a0565b905092915050565b6000602082019050919050565b6000613371826131ee565b61337b81856131f9565b93508360208202850161338d8561320a565b8060005b858110156133c957848403895281516133aa8582613345565b94506133b583613359565b925060208a01995050600181019050613391565b50829750879550505050505092915050565b600060208201905081810360008301526133f58184613366565b905092915050565b600080600080600060a08688031215613419576134186129c8565b5b600061342788828901612a1b565b955050602086013567ffffffffffffffff811115613448576134476129cd565b5b61345488828901612fc9565b945050604086013567ffffffffffffffff811115613475576134746129cd565b5b61348188828901612fc9565b935050606086013567ffffffffffffffff8111156134a2576134a16129cd565b5b6134ae88828901612fc9565b925050608086013567ffffffffffffffff8111156134cf576134ce6129cd565b5b6134db88828901612fc9565b9150509295509295909350565b7f5573657220646f6573206e6f7420657869737400000000000000000000000000600082015250565b600061351e601383612e02565b9150613529826134e8565b602082019050919050565b6000602082019050818103600083015261354d81613511565b9050919050565b7f4e487b7100000000000000000000000000000000000000000000000000000000600052602260045260246000fd5b6000600282049050600182168061359b57607f821691505b6020821081036135ae576135ad613554565b5b50919050565b7f4f6e6c7920746865206465706c6f7965722063616e2063616c6c20746869732060008201527f66756e6374696f6e000000000000000000000000000000000000000000000000602082015250565b6000613610602883612e02565b915061361b826135b4565b604082019050919050565b6000602082019050818103600083015261363f81613603565b9050919050565b7f4e487b7100000000000000000000000000000000000000000000000000000000600052603260045260246000fd5b7f4e487b7100000000000000000000000000000000000000000000000000000000600052601160045260246000fd5b60006136af82612a5d565b91506136ba83612a5d565b92508282039050818111156136d2576136d1613675565b5b92915050565b7f4e487b7100000000000000000000000000000000000000000000000000000000600052603160045260246000fd5b600061371282612a5d565b91507fffffffffffffffffffffffffffffffffffffffffffffffffffffffffffffffff820361374457613743613675565b5b600182019050919050565b600061375a82612a5d565b915061376583612a5d565b925082820190508082111561377d5761377c613675565b5b92915050565b7f596f75206d7573742073656e642065786163746c7920302e3120455448000000600082015250565b60006137b9601d83612e02565b91506137c482613783565b602082019050919050565b600060208201905081810360008301526137e8816137ac565b9050919050565b600081905092915050565b50565b600061380a6000836137ef565b9150613815826137fa565b600082019050919050565b600061382b826137fd565b9150819050919050565b7f4661696c656420746f2073656e64204574686572000000000000000000000000600082015250565b600061386b601483612e02565b915061387682613835565b602082019050919050565b6000602082019050818103600083015261389a8161385e565b9050919050565b60008190508160005260206000209050919050565b60006020601f8301049050919050565b60008160020a8302905092915050565b6000600883026139067fffffffffffffffffffffffffffffffffffffffffffffffffffffffffffffffff826138c6565b61391086836138c6565b95508019841693508086168417925050509392505050565b6000819050919050565b600061394d61394861394384612a5d565b613928565b612a5d565b9050919050565b6000819050919050565b61396783613932565b61397b61397382613954565b8484546138d6565b825550505050565b600090565b613990613983565b61399b81848461395e565b505050565b5b818110156139bf576139b4600082613988565b6001810190506139a1565b5050565b601f821115613a04576139d5816138a1565b6139de846138b6565b810160208510156139ed578190505b613a016139f9856138b6565b8301826139a0565b50505b505050565b60008160020a8304905092915050565b6000613a2a60001984600802613a09565b1980831691505092915050565b6000613a438383613a19565b9150826002028217905092915050565b613a5c82612c2f565b67ffffffffffffffff811115613a7557613a74612ecc565b5b613a7f8254613583565b613a8a8282856139c3565b600060209050601f831160018114613abd5760008415613aab578287015190505b613ab58582613a37565b865550613b1d565b601f198416613acb866138a1565b60005b82811015613af357848901518255600182019150602085019450602081019050613ace565b86831015613b105784890151613b0c601f891682613a19565b8355505b6001600288020188555050505b505050505050565b6000613b32600083612e02565b9150613b3d826137fa565b600082019050919050565b600060a082019050613b5d6000830186612a67565b8181036020830152613b6f8185612e13565b90508181036040830152613b838184612e13565b90508181036060830152613b9681613b25565b90508181036080830152613ba981613b25565b9050949350505050565b7f4170706f696e746d656e74206e6f7420666f756e640000000000000000000000600082015250565b6000613be9601583612e02565b9150613bf482613bb3565b602082019050919050565b60006020820190508181036000830152613c1881613bdc565b9050919050565b600060a082019050613c346000830188612a67565b8181036020830152613c468187612e13565b90508181036040830152613c5a8186612e13565b90508181036060830152613c6e8185612e13565b90508181036080830152613c828184612e13565b90509695505050505050565b7f5573657220616c72656164792065786973747300000000000000000000000000600082015250565b6000613cc4601383612e02565b9150613ccf82613c8e565b602082019050919050565b60006020820190508181036000830152613cf381613cb7565b9050919050565b60006020820190508181036000830152613d148184612e13565b90509291505056fea2646970667358221220cd12498db7b3815c2c11f33857247177a80d05d4a7c62035bb28b15bf7026cb264736f6c63430008150033",
  "immutableReferences": {},
  "source": "// SPDX-License-Identifier: MIT\r\npragma solidity ^0.8.0;\r\n\r\ncontract Storage {\r\n    address public deployer;\r\n\r\n    struct MedicalRecord {\r\n        uint256 id;\r\n        string description;\r\n    }\r\n\r\n    struct Appointment {\r\n        uint256 id;\r\n        string date;\r\n        string username;\r\n        string medicalRecord;\r\n        string description;\r\n    }\r\n\r\n    struct User {\r\n        address userAddress;\r\n        string name;\r\n        string birthday;\r\n        string illness;\r\n        string image;  // New field for image URL\r\n        Appointment[] appointments;\r\n    }\r\n\r\n    mapping(address => User) public users;\r\n    mapping(address => uint256) public medicalRecordCount;\r\n    mapping(address => uint256) public appointmentCount;\r\n    address[] public userAddresses;\r\n\r\n    // Events\r\n    event UserAdded(address indexed userAddress, string name);\r\n    event MedicalRecordAdded(\r\n        address indexed userAddress,\r\n        uint256 recordId,\r\n        string description\r\n    );\r\n    event MedicalRecordUpdated(\r\n        address indexed userAddress,\r\n        uint256 recordId,\r\n        string description\r\n    );\r\n    event MedicalRecordDeleted(address indexed userAddress, uint256 recordId);\r\n    event AppointmentAdded(\r\n        address indexed userAddress,\r\n        uint256 appointmentId,\r\n        string date,\r\n        string username,\r\n        string medicalRecord,\r\n        string description\r\n    );\r\n    event AppointmentUpdated(\r\n        address indexed userAddress,\r\n        uint256 appointmentId,\r\n        string date,\r\n        string username,\r\n        string medicalRecord,\r\n        string description\r\n    );\r\n    event AppointmentDeleted(\r\n        address indexed userAddress,\r\n        uint256 appointmentId\r\n    );\r\n    event MedicalRecordAddedToAppointment(\r\n        address indexed userAddress,\r\n        uint256 appointmentId,\r\n        uint256 recordId,\r\n        string description\r\n    );\r\n    event DescriptionAddedToAppointment(\r\n        address indexed userAddress,\r\n        uint256 appointmentId,\r\n        string description\r\n    );\r\n    event UserDeleted(address indexed userAddress); // Event for user deletion\r\n\r\n    constructor() {\r\n        deployer = msg.sender;\r\n    }\r\n\r\n    // Modifiers\r\n    modifier userExists(address _userAddress) {\r\n        require(\r\n            users[_userAddress].userAddress != address(0),\r\n            \"User does not exist\"\r\n        );\r\n        _;\r\n    }\r\n\r\n    modifier onlyDeployer() {\r\n        require(\r\n            msg.sender == deployer,\r\n            \"Only the deployer can call this function\"\r\n        );\r\n        _;\r\n    }\r\n\r\n    // Function to add a new user\r\n    function addUser(\r\n        address _userAddress,\r\n        string memory _name,\r\n        string memory _birthday,\r\n        string memory _illness,\r\n        string memory _image  // New parameter for image\r\n    ) public {\r\n        require(\r\n            users[_userAddress].userAddress == address(0),\r\n            \"User already exists\"\r\n        );\r\n\r\n        User storage user = users[_userAddress];\r\n        user.userAddress = _userAddress;\r\n        user.name = _name;\r\n        user.birthday = _birthday;\r\n        user.illness = _illness;\r\n        user.image = _image;  // Assign the image URL\r\n\r\n        userAddresses.push(_userAddress);\r\n\r\n        emit UserAdded(_userAddress, _name);\r\n    }\r\n\r\n    // Function to delete a user by address\r\n    function deleteUser(address _userAddress) public onlyDeployer {\r\n        require(\r\n            users[_userAddress].userAddress != address(0),\r\n            \"User does not exist\"\r\n        );\r\n\r\n        // Deleting user from storage\r\n        delete users[_userAddress];\r\n        // Removing user address from the userAddresses array\r\n        for (uint256 i = 0; i < userAddresses.length; i++) {\r\n            if (userAddresses[i] == _userAddress) {\r\n                userAddresses[i] = userAddresses[userAddresses.length - 1];\r\n                userAddresses.pop();\r\n                break;\r\n            }\r\n        }\r\n\r\n        emit UserDeleted(_userAddress);\r\n    }\r\n\r\n    // Function to get a user's details\r\n    function getUser(address _userAddress)\r\n        public\r\n        view\r\n        userExists(_userAddress)\r\n        returns (\r\n            string memory,\r\n            string memory,\r\n            string memory,\r\n            string memory, \r\n            Appointment[] memory\r\n        )\r\n    {\r\n        User storage user = users[_userAddress];\r\n        return (user.name, user.birthday, user.illness, user.image, user.appointments);\r\n    }\r\n\r\n    // Function to get all user addresses\r\n    function getAllUserAddresses() public view returns (address[] memory) {\r\n        return userAddresses;\r\n    }\r\n\r\n    // Function to add an appointment\r\n    function addAppointment(\r\n        address _userAddress,\r\n        string memory _date,\r\n        string memory _username\r\n    ) public payable userExists(_userAddress) {\r\n        require(msg.value == 0.1 ether, \"You must send exactly 0.1 ETH\");\r\n\r\n        // Transfer 0.1 ETH to the contract deployer\r\n        (bool sent, ) = deployer.call{value: msg.value}(\"\");\r\n        require(sent, \"Failed to send Ether\");\r\n\r\n        User storage user = users[_userAddress];\r\n        uint256 appointmentId = appointmentCount[_userAddress]++;\r\n        user.appointments.push(\r\n            Appointment(\r\n                appointmentId,\r\n                _date,\r\n                _username,\r\n                \"\",\r\n                \"\"\r\n            )\r\n        );\r\n\r\n        emit AppointmentAdded(\r\n            _userAddress,\r\n            appointmentId,\r\n            _date,\r\n            _username,\r\n            \"\",\r\n            \"\"\r\n        );\r\n    }\r\n\r\n    // Function to update an appointment\r\n    function updateAppointment(\r\n        address _userAddress,\r\n        uint256 _appointmentId,\r\n        string memory _newDate,\r\n        string memory _username,\r\n        string memory _medicalRecord, \r\n        string memory _description\r\n    ) public {\r\n        User storage user = users[_userAddress];\r\n        bool appointmentFound = false;\r\n\r\n        for (uint256 i = 0; i < user.appointments.length; i++) {\r\n            if (user.appointments[i].id == _appointmentId) {\r\n                user.appointments[i].date = _newDate;\r\n                user.appointments[i].username = _username;\r\n                user.appointments[i].medicalRecord = _medicalRecord;\r\n                user.appointments[i].description = _description;\r\n                appointmentFound = true;\r\n                break;\r\n            }\r\n        }\r\n\r\n        require(appointmentFound, \"Appointment not found\");\r\n\r\n        emit AppointmentUpdated(\r\n            _userAddress,\r\n            _appointmentId,\r\n            _newDate,\r\n            _username,\r\n            _medicalRecord,\r\n            _description\r\n\r\n        );\r\n    }\r\n\r\n    // Function to get all appointments of a user\r\n    function getUserAppointments(address _userAddress)\r\n        public\r\n        view\r\n        userExists(_userAddress)\r\n        returns (Appointment[] memory)\r\n    {\r\n        User storage user = users[_userAddress];\r\n        return user.appointments;\r\n    }\r\n\r\n    // Function to get all appointments\r\n    function getAllAppointments()\r\n        public\r\n        view\r\n        returns (Appointment[] memory)\r\n    {\r\n        uint256 totalAppointmentsCount;\r\n        for (uint256 i = 0; i < userAddresses.length; i++) {\r\n            totalAppointmentsCount += users[userAddresses[i]]\r\n                .appointments\r\n                .length;\r\n        }\r\n\r\n        Appointment[] memory allAppointments = new Appointment[](\r\n            totalAppointmentsCount\r\n        );\r\n        uint256 currentIndex;\r\n        for (uint256 i = 0; i < userAddresses.length; i++) {\r\n            User storage user = users[userAddresses[i]];\r\n            for (uint256 j = 0; j < user.appointments.length; j++) {\r\n                allAppointments[currentIndex] = user.appointments[j];\r\n                currentIndex++;\r\n            }\r\n        }\r\n        return allAppointments;\r\n    }\r\n\r\n    // Function to fetch all users\r\n    function fetchAllUsers() public view returns (User[] memory) {\r\n        User[] memory allUsers = new User[](userAddresses.length);\r\n        for (uint256 i = 0; i < userAddresses.length; i++) {\r\n            allUsers[i] = users[userAddresses[i]];\r\n        }\r\n        return allUsers;\r\n    }\r\n}\r\n",
  "sourcePath": "C:\\Users\\MSI\\projects\\blockchain-pfe\\contracts\\Storage.sol",
  "compiler": {
    "name": "solc",
    "version": "0.8.21+commit.d9974bed.Emscripten.clang"
  },
  "schemaVersion": "3.4.16",
  "updatedAt": "2024-05-25T11:24:06.618Z",
  "networkType": "ethereum",
  "devdoc": {
    "kind": "dev",
    "methods": {},
    "version": 1
  },
  "userdoc": {
    "kind": "user",
    "methods": {},
    "version": 1
  }
}